:020000040800F2
:10000000080500209D010008771700083715000833
:10001000751700087D040008891B00080000000017
:100020000000000000000000000000009B17000816
:100030006505000800000000991700089D170008DA
:10004000B7010008B7010008B7010008B7010008B0
:10005000B7010008B7010008B7010008B7010008A0
:10006000B7010008B7010008B7010008B701000890
:10007000B7010008B7010008B7010008B701000880
:10008000B7010008B7010008B7010008B701000870
:10009000B7010008B7010008B7010008B701000860
:1000A000B7010008B7010008B7010008B701000850
:1000B000B7010008B7010008B7010008B701000840
:1000C000B7010008B7010008B7010008B701000830
:1000D000B7010008B7010008B7010008B701000820
:1000E000B7010008B7010008B7010008B701000810
:1000F000B7010008B7010008B7010008B701000800
:10010000B7010008B7010008B7010008B7010008EF
:10011000B7010008B7010008B7010008B7010008DF
:1001200081040008B7010008B7010008B701000802
:10013000B7010008B7010008B7010008B7010008BF
:10014000B7010008B7010008B7010008B7010008AF
:10015000B7010008B7010008B7010008B70100089F
:10016000B7010008B7010008B7010008B70100088F
:10017000B7010008B7010008B7010008000000003F
:10018000B7010008B7010008DFF80CD000F090F8C4
:1001900000480047211F0008080500200648804746
:1001A00006480047FEE7FEE7FEE7FEE7FEE7FEE75C
:1001B000FEE7FEE7FEE7FEE72518000889010008D4
:1001C0002DE9F05F0546002092469B46884606468C
:1001D000814640241BE0284641464746224600F01F
:1001E00057F853465A46C01A914110D31146184643
:1001F000224600F03EF82D1A67EB01084F462246D2
:100200000120002100F035F817EB00094E41201EB7
:10021000A4F10104DFDC484631462A464346BDE8E6
:10022000F09FD2B201E000F8012B491EFBD27047CB
:100230000022F6E710B513460A4604461946FFF7B2
:10024000F0FF204610BD30B50B46014600202022AD
:10025000012409E021FA02F59D4205D303FA02F5D3
:10026000491B04FA02F52844151EA2F10102F1DC33
:1002700030BD202A04DB203A00FA02F1002070474A
:100280009140C2F1200320FA03F3194390407047D4
:10029000202A04DB203A21FA02F00021704721FADB
:1002A00002F3D040C2F12002914008431946704742
:1002B000064C074D06E0E06840F0010394E80700B3
:1002C00098471034AC42F6D3FFF762FFFC1F0008DA
:1002D0001C20000810B50146806B026C12F0500F14
:1002E00005D0806BC26CBDE8104008461047016C19
:1002F00041F40071016401688A6812F0405F17D10F
:100300008269AAB9CA6A12F4700F02D08A685205CB
:100310000ED44A6822F020024A60016C21F48071F8
:100320000164016CC90403D4016C41F00101016452
:1003300000F0C0F910BD10B5806B40210164416C24
:1003400041F00401416400F0B7F910BD10B5806BB5
:1003500000F0B1F910BD0000454910B54A6822F41B
:1003600040324A604A6843681A434A6001684A68F2
:1003700022F480724A6001684A68036942EA0322F3
:100380004A6001684A6822F040724A6001684A681F
:1003900083681A434A6001688A6822F400628A60AE
:1003A00001688A68C3681A438A60816A6FF0706264
:1003B000D14201688A6822F070628A6001688A68A6
:1003C0000CD0836A1A438A6001688A6822F040521E
:1003D0008A6001688A68C36A1A4301E022F04052C9
:1003E0008A6001688A6822F002028A6001688A686D
:1003F000836942EA43028A60016A002901684A6807
:100400000FD042F400624A6001684A6822F46042F8
:100410004A6001684A68174C436A04EB43331A4345
:1004200001E022F400624A600168CA6A22F47002A4
:10043000CA620168CA6A838B0F4C04EB03531A43E8
:10044000CA6201688A6822F400728A6001688A6858
:10045000036B42EA43228A6001688A6822F4806260
:100460008A6001688A68406942EA8020886010BD1D
:100470000023014000E0FFFF0000F0FFFEE7000066
:100480000B490A680B4803689A4204D90A681E2A75
:1004900001D90A68026009681E2905D200681E2871
:1004A00002D9054901200860044800F003BA0000A1
:1004B000040000200000002008000020A40000200C
:1004C00001681823CAB2103AB2FBF3F2054B6FF37E
:1004D0000901032A9B5CC36500D9091D8165084693
:1004E00070470000DC1F000810B5014600208B6932
:1004F0008A6A4FF0C07453B1B3F5005F15D072B182
:10050000012A0CD0022A0AD0032A09D104E01AB128
:10051000012A06D0022A03D1C96AC90100D50120E7
:1005200010BDC96AA142FAD010BD002AF7D0012A35
:10053000F2D0022AF3D0032AF3D010BD30B50468FC
:10054000256825F480252560046863608368402B56
:10055000036803D099600068C26030BD9A6000688B
:10056000C16030BD7047704778B50024009490F8A2
:100570003C20012A19D0012280F83C200A68072378
:100580000568092A13D9EE680A3A02EB4202934041
:100590009E43EE600B788A680A3B03EB43039A4064
:1005A0000368DD682A43DA6010E0022078BD2E6916
:1005B00002EB420293409E432E610B788A6803EB64
:1005C00043039A4003681D692A431A614A681F233E
:1005D000072A13D205686E6B521E02EB820293400B
:1005E0009E436E630B790A885B1E92B203EB830312
:1005F0009A4003685D6B2A435A6327E005680D2A19
:1006000012D22E6BD21F02EB820293409E432E63C6
:100610000B790A88DB1F92B203EB83039A400368CD
:100620001D6B2A431A6311E0EE6A0D3A02EB820257
:1006300093409E43EE620B790A880D3B92B203EB26
:1006400083039A400368DD6A2A43DA62164B056821
:10065000144A9D4206D10D68122D03D1556845F408
:100660008005556005689D4218D10B68102B01D09C
:10067000112B13D1536843F4000353600968102908
:100680000CD10A490A4A0968B1FBF2F101EB810178
:10069000490000E0491E00910029FBD180F83C4050
:1006A000002078BD002301400020014018000020F8
:1006B00040420F0070477047704770B504004FF01C
:1006C000000503D0206C002610B107E0012070BDAA
:1006D000666484F83C60204600F01AF8206CC0067E
:1006E00010D4206C20F4885040F002002064204692
:1006F000FFF732FE6664206C20F0020040F001003B
:10070000206400E0012584F83C60284670BD0000AC
:1007100070B586B0064614216846FFF789FD20496A
:10072000306888423AD11F480025016841F4807141
:100730000160006800F4807005901A481438016860
:1007400041F0010101600068694600F00100059078
:10075000022000900320CDE90105134800F020FAA3
:10076000134C1248C4E900050015A560C4E9035004
:10077000400060618000A0614011E06100022062E1
:10078000042060620120C4E90A052046256300F0C8
:1007900061F908B1FFF7E7FEB463A66306B070BD68
:1007A0000020014044380240000002401064024032
:1007B000A4000020F8B50E4600210446009190F8F0
:1007C0003C00012807D0012084F83C0020688368A1
:1007D000DB0702D011E00220F8BD836843F001037B
:1007E00083602D482D4B0068B0FBF3F000EB400018
:1007F00000E0401E00900028FBD120688368DB07E2
:1008000048D0236C40F20165AB4343F4807323640A
:100810004068400505D5206C20F4005040F480501D
:100820002064206CC00404D5606C20F00600606475
:1008300000E0616484F83C10A16B1A48184DC8634D
:10084000A16B19480864A16B1848C86421686FF04F
:10085000220008602068416841F0806141602068A2
:10086000816841F4807181602168134632464C31C1
:10087000A06B00F059F96868C006206802D00C49E6
:10088000884207D1816811F0405F03D1816841F04F
:10089000804181600020F8BD1800002040420F0018
:1008A00000230140D50200084D030008370300086B
:1008B000002001402DE9F84304464FF00009CDF82F
:1008C000009063484FF41651A56D0068B0FBF1F736
:1008D0002E6894F85C10082000FA01F131420FD024
:1008E00021680A6852070BD50A6822F004020A60E0
:1008F00094F85C108840A860606D40F0010060656D
:1009000094F85C104FF0010808FA01F0304208D06A
:1009100021684969090604D5A860606D40F00200AD
:10092000606594F85C1004208840304208D021684B
:100930000968890704D5A860606D40F0040060650F
:1009400094F85C1010208840304218D02168096863
:10095000090714D5A86020680168490304D5006818
:10096000000308D5A16C07E00168C90503D401683C
:1009700021F008010160216C09B12046884794F8F4
:100980005C1020208840304231D021680968C906B7
:100990002DD5A86094F8350005282068016806D098
:1009A000490347D5006800031DD4616C1CE021F0A9
:1009B000160101602068416921F080014161206CCD
:1009C00008B9A06C20B12068016821F0080101601D
:1009D00094F85C103F208840A86084F8349084F834
:1009E0003580216D1FE0E16B09B120468847606DBD
:1009F00000282BD0606DC00714D0052084F8350086
:100A00002068016821F0010101600098401C0090FD
:100A1000B84203D820680068C007F6D184F8349043
:100A200084F83580E16C002910D001B02046BDE883
:100A3000F04308470168C905D5D4016821F01001C9
:100A4000016084F8349084F83580CCE7BDE8F88301
:100A5000180000202DE9F041044600F07FF9064619
:100A60005CB1002584F83450022084F835002068F9
:100A7000016821F0010101600DE00120BDE8F08175
:100A800000F06CF9801B052805D920206065032043
:100A900084F83500F2E720680068C007F0D12268CA
:100AA000116820480140D4E901031843D4E9033612
:100AB0003343184363691843A3691843E369184330
:100AC000236A18430843616A042903D1D4E90B134C
:100AD00019430843106020684069666A20F00701E6
:100AE00030460E43012704280CD1A06A0643E06A71
:100AF00040B12046FFF7F8FC20B14020606584F843
:100B00003570BAE7206846612046FFF7D9FC94F8B3
:100B10005C203F2191408160656584F8357000203C
:100B2000ACE700003F8010F02DE9F0410446866DEF
:100B300090F83400002501280DD0012084F83400FD
:100B400094F835700020012F07D084F83400022576
:100B50002846BDE8F0810220FBE7022784F83570C3
:100B600060652046FFF7EAFC94F85C103F2088405F
:100B7000B0602068016841F0160101602068416999
:100B800041F080014161206C20B12068016841F092
:100B9000080101602068016841F001010160D7E7A8
:100BA0002DE9F84FDFF87CB100224FF001084FF03B
:100BB000030A4FF00F090BF1040E00BF0B6808FA8F
:100BC00002F42340A3426ED14D68022D01D0122DB4
:100BD0000ED1D50800EB850CDCF820505607F70E37
:100BE00009FA07F6B5430E69BE402E43CCF82060E3
:100BF000066855000F790AFA05FC07F0030726EA94
:100C00000C06AF40374307604E68012E05D0022E18
:100C100003D0112E01D0122E0ED18668CF6826EA9D
:100C20000C06AF40374387604668A6430C79C4F38F
:100C30000014944034434460C6688C6826EA0C066D
:100C4000AC403443C4604C68E40065D5364C25683C
:100C500045F480452560246822F0030504F48044AF
:100C60000094324C2E19D6F8084895072F0F09FA30
:100C700007F5AC432E4DA84201D1002524E02D4DAF
:100C8000A84201D101251FE02B4DA84201D1022528
:100C90001AE02A4DA84201D1032515E0284DA842AB
:100CA00002D1042510E037E0264DA84201D10525E8
:100CB0000AE0254DA84201D1062505E0234DA842B2
:100CC00001D1072500E00825BD402543C6F8085896
:100CD000DBF800405D464E689C43F60300D51C439C
:100CE0002C60DEF8004075464E689C43B60300D584
:100CF0001C432C600B4D08352C684E689C43F60253
:100D000000D51C432C60074D0C352C684E689C4365
:100D1000B60200D51C432C60521C102AFFF44EAFC3
:100D2000BDE8F88F003C01404438024000300140EB
:100D3000000002400004024000080240000C024093
:100D4000001002400014024000180240001C024043
:100D50000AB1816170470904FBE70000014880681F
:100D6000704700000C00002002488168027811449E
:100D7000816070470C0000200B4810B5016841F4F9
:100D800000710160016841F480610160016841F413
:100D900080710160032000F06FF8002000F006F879
:100DA00000F024F8002010BD003C024070B50D4D4D
:100DB00004464FF47A712878B1FBF0F00A490968CB
:100DC000B1FBF0F000F0E0FA48B9102C07D2002295
:100DD0002146501E00F030F800206C6070BD0120EC
:100DE00070BD00000C000020180000200B4882B0ED
:100DF000016841F480410160006800F48040009087
:100E00000648001F016841F080510160006800F051
:100E100080500090072002B000F02EB84438024005
:100E200000F01F02012191404009800000F1E02004
:100E3000C0F8001170470000F0B40E4B1B680C4660
:100E4000C3F30223C3F10705042D00D90425191D9E
:100E5000072901D2002300E0DB1E012606FA05F176
:100E6000491E214099409E40761E16403143F0BCF9
:100E700000F082BC0CED00E0064900F007020868B3
:100E80004FF6FF03184040EA0220034A104308606F
:100E9000704700000CED00E00000FA052DE9F04776
:100EA0000E46050065D0DFF81481D8F80000F7B2CF
:100EB00000F00F00B04207D288F80070D8F80000A8
:100EC00000F00F00B04254D128683D4C810712D584
:100ED000400703D5206840F4E050206028780007E0
:100EE00003D5206840F4604020602068A96820F0A5
:100EF000F000084320602878C0072DD0304968688A
:100F00000839012812D0022813D0032811D009680B
:100F1000890700292DDA216821F0030101432160AE
:100F2000FFF71CFF814641F2883A0EE00968890309
:100F3000EFE709688901ECE7FFF710FFA0EB090173
:100F4000514502D90320BDE8F0872068696800F0A8
:100F50000C00B0EB810FEFD1D8F80010404601F043
:100F60000F01B14207D90770006800F00F00B042CE
:100F700001D00120E7E72878400705D52068E96817
:100F800020F4E050084320602878000706D5206848
:100F9000296920F4604040EAC100206000F036F882
:100FA0002168084AC1F30311515CC8400649086032
:100FB0000020FFF7FBFE0020C5E70000003C0240D8
:100FC00008380240E41F00081800002004480549C2
:100FD00000680968044AC1F38221515CC840704727
:100FE0001800002008380240F41F00080448054992
:100FF00000680968044AC1F34231515CC840704737
:101000001800002008380240F41F0008154810B5E9
:10101000006810F00C02144813D04110042A0FD0BD
:10102000082A0ED10F4C241F2268236802F03F02C9
:101030005B0207D52068C0F38810A0FB010106E021
:10104000084610BD2168C1F38811A1FB00010023EF
:10105000FFF7B6F82168C1F30141491C4900B0FB14
:10106000F1F010BD083802400024F4002DE9F84FDB
:10107000050076D02878DFF8F8B2BE4CC00749D01A
:10108000DBF800105846C1F38101012908D000683F
:10109000C0F3810002280AD1201D0068400206D555
:1010A0002068800336D568680028E2D032E068689E
:1010B000B0F5803F10D0B0F5A02F206810D020F4FC
:1010C00080302060206820F4802020606868A0B113
:1010D000FFF744FE06460CE0206840F48030F4E759
:1010E00040F480202060F7E7FFF738FE801B64287B
:1010F00073D820688003F7D50CE0FFF72FFE064673
:1011000005E000BFFFF72AFE801B6428F0D82068A6
:101110008003F7D42878DFF8608280074FF0000959
:101120003ED5DBF80010584611F00C0F09D00068CE
:10113000C0F3810002280BD18D48001F00684002D7
:1011400006D42068800715D5E868012809D111E088
:10115000E868B8B10120C8F80000FFF7FFFD0646B7
:1011600005E002E1FFF7FAFD801B0228C0D82068E5
:101170008007F7D52068296920F0F80040EAC1000F
:1011800020600DE0C8F80090FFF7E8FD064604E097
:10119000FFF7E4FD801B02281FD820688007F7D4E2
:1011A0002878000722D5724E744869696C3671B18F
:1011B00001210160FFF7D2FD074604E0FFF7CEFDF5
:1011C000C01B022809D830688007F7D50EE0C0F8A8
:1011D0000090FFF7C3FD074605E083E0FFF7BEFD83
:1011E000C01B02287ED830688007F7D428784007D3
:1011F00068D5DFF87CA100270AF1380ADAF8000088
:10120000C0000BD4DAF8001041F08051CAF8001089
:10121000DAF80000012700F080500090584E306846
:10122000C00510D4306840F480703060FFF796FD40
:10123000009005E0FFF792FD0099401A022851D86E
:101240003068C005F6D54A4EA868683601280FD028
:101250000528306810D020F001003060306820F0A0
:1012600004003060A868B8B1FFF778FD00900FE087
:10127000306840F00100F4E740F004003060F7E728
:10128000FFF76CFD0099411A41F28830814264D821
:1012900030688007F4D50EE0FFF760FD009007E0AE
:1012A000FFF75CFD0099411A41F28830814254D821
:1012B00030688007F4D42FB1DAF8001021F08051A3
:1012C000CAF80010A869C0B3DBF80010C1F38101AF
:1012D00002294AD00228484607D0C8F86000FFF724
:1012E0003DFD00E039E005463AE04746C8F86000B9
:1012F000FFF734FD064604E0FFF730FD801B0228AF
:101300002BD820688001F7D4D5E907010843A96AE2
:101310001C4A490802EB01416A6A41EA821108430A
:1013200095F82C1040EA01611148001F016001206E
:101330003866FFF713FD054605E014E0FFF70EFDE4
:10134000401B022809D820688001F7D50BE000BFB8
:10135000FFF704FD401B022802D90320BDE8F88FE7
:1013600020688001F4D40020F8E70120F6E70000AF
:10137000083802400038024000004742800E4742D1
:10138000007000400000FFFF10B5401EB0F1807FEC
:1013900001D3012010BD4FF0E02460610F216017E0
:1013A00000F0EAF90020A06107202061002010BDB4
:1013B00070B5040004D094F83900002510B106E09F
:1013C000012070BD84F83850204600F023F8242016
:1013D00084F839002068C16821F40051C1602046BA
:1013E00000F04AFA2068016921F490410161206807
:1013F000416921F02A0141612068C16841F400512E
:10140000C160E563202084F8390084F83A000020A8
:1014100070BD000010B586B0044614216846FEF782
:1014200007FF13492068884220D11248016841F41F
:1014300000310160006800F4003005900D4810385C
:10144000016841F0010101600068694600F0010097
:1014500005900C20009002200190012002900320B2
:101460000390072004900448FFF79AFB06B010BDD4
:101470000044004040380240000002402DE9F8439B
:10148000044690F839001F4616460D46202850D1D4
:10149000A5B19EB194F8380001284AD0012084F803
:1014A00038004FF00008C4F83C80212084F839004F
:1014B000FFF754FCA6848146E68426E00120BDE8BF
:1014C000F883E08C401EE084A0684B46B0F5805F56
:1014D0004FF000024FF080012046009703D000F04B
:1014E00021FBE8B90DE000F01DFBC8B92888216890
:1014F000C0F308004860206908B16D1C05E0AD1C10
:1015000003E0216815F8010B4860E08C0028D8D171
:101510004B46002240212046009700F003FB08B113
:101520000320CCE7202084F8390084F8388000209C
:10153000C5E70220C3E7FEE77FB500251048009508
:10154000019502950D4903950160012404614FF452
:1015500080318461C0E901150A490562C0E90A15B4
:10156000C4610463C5604461FFF7A7F8009469464D
:101570000348CDE90145FEF7F7FF7FBD002001409C
:101580001C0000200100000F2DE9F04F87B014214E
:101590006846FEF74DFE70480024016841F01001D6
:1015A0000160016801F010010591016841F004013A
:1015B0000160016801F004010591016841F08001BA
:1015C0000160016801F080010591016841F00101AD
:1015D0000160016801F001010591016841F002011B
:1015E0000160016801F002010591016841F0080104
:1015F00001600068002200F0080005900C215748A7
:10160000FFF7A6FB012211465548FFF7A1FB4FF259
:10161000100B002259465348FFF79AFB4FF004087D
:101620000126CDF80080CDE9016469464B4803945A
:10163000FFF7B6FA08270225CDE90254CDE9007676
:1016400069464648FFF7ACFA0096CDE90164694661
:1016500043480394FFF7A4FA0097CDE90154052706
:10166000CDE9034769463E48FFF79AFADFF8F8905C
:101670000096CDE9019469463C48FFF791FA1020A5
:101680000090CDE901544FF0060ACDE9034A6946BE
:101690003648FFF785FAE0200090CDE90154CDE906
:1016A000034769463148FFF77BFACDE90084694674
:1016B0002F480294FFF774FA68020090CDE90154B4
:1016C000CDE9034769462A48FFF76AFACDF800B02A
:1016D000CDE90164694623480394FFF761FA4FF4AA
:1016E000A4500090CDE90154CDE9034A69461C4855
:1016F000FFF756FA2802CDE9000469461B48029418
:10170000FFF74EFA4FF4E0500090CDE901540A2063
:10171000CDE9034069461548FFF742FA2020CDE99C
:10172000000469460F480294FFF73AFA4FF410702C
:1017300000901220CDE90106CDE9034869460C4826
:10174000FFF72EFA0095CDE9019469460348FFF7AB
:1017500027FA07B0BDE8F08F303802400010024091
:1017600000080240000C024000001210000002407D
:1017700000040240FEE770470907090E002806DA58
:1017800000F00F0000F1E02080F8141D704700F118
:10179000E02080F80014704770477047FFF7E4BA04
:1017A00030B593B030216846FEF742FD14210CA8F5
:1017B000FEF73EFD19480025016841F080510160A7
:1017C000006800F0805011901548016841F4804194
:1017D00001600068022400F4804011900120009014
:1017E000000401908001CDE9064004200890A82063
:1017F000CDE9090407200B906846FFF737FC0CA9D8
:101800000F2081E831004FF4A0500F90E0021090BB
:1018100005210CA8FFF742FB13B030BD4038024051
:10182000007000401048016841F4700101600F48E9
:10183000016841F0010101600C4A00210832116089
:1018400002680B4B1A400260031D0A4A1A600268C4
:1018500022F48022026005480C30016002495806DB
:10186000803908607047000088ED00E000380240D1
:10187000FFFFF6FE103000242DE9F0410446006819
:10188000016921F44052E168114301612168C8688F
:1018900049F20C6290432369A268E5691A436369BF
:1018A0002B431A430243CA602168486920F44072FE
:1018B000A06910434861E1696425B1F5004F97487C
:1018C000974A21684FF032083FD0914201D08142BF
:1018D0007CD1FFF78BFB00EBC00101EB00106168CE
:1018E0008900B0FBF1F6FFF781FB00EBC00101EBD3
:1018F000001061688900B0FBF1F0B0FBF5F06FF00B
:101900001801484306EB800108EB0110B0FBF5F02D
:1019100000F0F006FFF76AFB00EBC00101EB0010DE
:1019200061688900B0FBF1F0B0FBF5F006EB001642
:10193000FFF75CFB00EBC00101EB00106168890060
:10194000B0FBF1F7FFF752FBD2E0914201D08142A8
:101950003DD1FFF74BFB00EBC00101EB00106168CC
:101960004900B0FBF1F0B0FBF5F00601FFF73EFBDC
:1019700000EBC00101EB001061684900B0FBF1F71A
:10198000FFF734FB00EBC00101EB00106168490078
:10199000B0FBF1F0B0FBF5F06FF01801484307EB36
:1019A000800108EBC100B0FBF5F000F0F80006EB99
:1019B0004006FFF71BFB00EBC00101EB0010616864
:1019C0004900B0FBF1F7FFF711FB3CE055E0FFF7F2
:1019D000FDFA00EBC00101EB001061684900B0FBAB
:1019E000F1F0B0FBF5F00601FFF7F0FA00EBC001F3
:1019F00001EB001061684900B0FBF1F7FFF7E6FA70
:101A000000EBC00101EB001061684900B0FBF1F090
:101A1000B0FBF5F06FF01801484307EB800108EBCD
:101A2000C100B0FBF5F000F0F80006EB4006FFF750
:101A3000CDFA00EBC00101EB001061684900B0FB7A
:101A4000F1F7FFF7C3FA00EBC00101EB001061688A
:101A50004900B0FBF1F0B0FBF5F06FF0180148431E
:101A600007EB800108EBC100B0FBF5F000F00700C8
:101A7000216830448860BDE8F081FFF7A7FA00EBE9
:101A8000C00101EB001061688900B0FBF1F6FFF7BF
:101A90009DFA00EBC00101EB001061688900B0FB0A
:101AA000F1F0B0FBF5F06FF01801484306EB800150
:101AB00008EB0110B0FBF5F000F0F006FFF786FA36
:101AC00000EBC00101EB001061688900B0FBF1F090
:101AD000B0FBF5F006EB0016FFF778FA00EBC0015B
:101AE00001EB001061688900B0FBF1F7FFF76EFAB7
:101AF00000EBC00101EB001061688900B0FBF1F060
:101B0000B0FBF5F06FF01801484307EB800108EBDC
:101B10000110B0FBF5F000F00F00A9E70014014040
:101B2000001001402DE9F041984617460E46044644
:101B3000069D1DE0681C1BD02DB1FFF70FF9A0EB2F
:101B40000800A84214D92068C16821F4D071C1608E
:101B50002068416921F001014161202084F83900A9
:101B600084F83A00002084F838000320BDE8F081B2
:101B70002068006836EA000004D00020B842D9D0BE
:101B80000020F3E70120F9E7FEE700000FB4084B5F
:101B900010B504A902AA039800F01CF8044602A993
:101BA000002000F0B8F9204610BC5DF814FB0000DE
:101BB000171F000802E008C8121F08C1002AFAD146
:101BC00070477047002001E001C1121F002AFBD1BD
:101BD000704700002DE9FF4F8BB088460546002670
:101BE00006E025280BD0DDE90D1290476D1C761C10
:101BF00028780028F5D10FB03046BDE8F08F0024DA
:101C0000A146A2460122AE4900E0044315F8013F77
:101C1000203B02FA03F00842F7D128782A2810D096
:101C20006FF02F022878A0F13001092915D809EBAF
:101C3000890102EB410144F0020400EB01096D1C33
:101C4000F0E758F8041B5FEA010903D544F4005497
:101C5000C9F1000944F002046D1C28782E2817D120
:101C600015F8010F44F004042A280ED06FF02F025B
:101C70002878A0F1300109290AD80AEB8A0102EB81
:101C8000410100EB010A6D1CF2E758F804AB6D1C32
:101C900028786C280FD006DC4C2817D068280DD087
:101CA0006A2814D104E0742810D07A280FD10DE0EE
:101CB00044F400140AE044F4801401E044F44014B5
:101CC0006978814202D104F580146D1C6D1C28785E
:101CD000692865D006DC00288DD0632827D06428C9
:101CE00006D15DE06E2808D073282AD0752877D0F9
:101CF000DDE90D129047761CE0E0C4F302500228A3
:101D000009D003280DD0D8F8001004280DD00E609B
:101D100008F10408D2E0D8F80010F217C1E9006217
:101D2000F6E7D8F800100E80F2E70E70F0E718F82A
:101D3000041B8DF8001000208DF80100EB460120F7
:101D400003E058F804BB4FF0FF3061074FF0000785
:101D500001D40AE07F1C57450DDA8742FADB1BF8F5
:101D600007100029F6D106E07F1C8742FCDB1BF838
:101D700007100029F8D1DDE90D23A9EB0700814602
:101D8000214600F0B1F83044C61904E0DDE90D1237
:101D90001BF8010B90477F1EF8D22146484688E089
:101DA00058F8040BC4F302514FF00A0B032900D179
:101DB00000B2042900D140B2002802DA40422D21AD
:101DC00002E0210505D52B218DF82410012104E026
:101DD00006E0E10710D02021F6E708AF089113E0F4
:101DE00058F8040BC4F302514FF00A0B032900D139
:101DF00080B2042900D1C0B20021EEE75946FEF7B7
:101E000022FA303107F8011D0028F7D1ADEB0700A9
:101E100000F1200B600702D524F4803401E04FF07C
:101E2000010ADA4502DDAAEB0B0000E00020824641
:101E300000EB0B0108980144A9EB01000A90E003B4
:101E400006D4DDE90D2321460A9800F04DF806443A
:101E50004FF0000908E009A911F80900DDE90D12A9
:101E6000904709F10109761C08998945F3DBE003E5
:101E70000CD5DDE90D2321460A9800F035F806441B
:101E800004E0DDE90D1230209047761CBAF1000124
:101E9000AAF1010AF5DC05E0DDE90D1217F8010BE6
:101EA0009047761CBBF10001ABF1010BF4DC0A9802
:101EB0002146DDE90D2300F005F806446D1C97E688
:101EC000092801002DE9F041044600251E46174669
:101ED000880404D405E039462020B0476D1C641EF8
:101EE000F9D52846BDE8F0812DE9F04104460025EA
:101EF0001E469046C80301D5302700E020278804FD
:101F000004D505E041463846B0476D1C641EF9D53E
:101F10002846BDE8F0810A68531C0B6010707047BA
:101F200086B0FEF729FFFFF73BFCFFF72DFB2448A7
:101F30000024016841F4800101600068224600F439
:101F40008000059021463820FEF776FF3820FEF706
:101F500067FFFFF7F1FA1C481A4901604FF4E131BD
:101F6000C0E901140C21C460C0E904418461C4616A
:101F7000FFF71EFA154DAC6013480122291D4838A1
:101F8000FEF718FC124E4FF47A77A8680128FCD1AE
:101F9000012204213046FEF7DBFE2A680DA16846C7
:101FA000FFF7F4FD82B23B4669460748FFF766FA41
:101FB0002C60AC60002204213046FEF7C9FEE4E745
:101FC000303802400044004064000020000000203F
:101FD000001002402564200D0A00000000061016C3
:101FE00000061016000000000000000001020304BB
:101FF0000607080900000000010203041C20000875
:10200000000000201C000000B41B0008382000085D
:102010001C000020EC040000C41B000800000000AD
:10202000000000000000000001000000100000009F
:08203000000000000024F40090
:040000050800018965
:00000001FF
